{
  "contractName": "RogToken",
  "abi": [
    {
      "inputs": [],
      "payable": false,
      "stateMutability": "nonpayable",
      "type": "constructor"
    },
    {
      "constant": true,
      "inputs": [],
      "name": "totalSupply",
      "outputs": [
        {
          "internalType": "uint256",
          "name": "",
          "type": "uint256"
        }
      ],
      "payable": false,
      "stateMutability": "view",
      "type": "function"
    }
  ],
  "bytecode": "0x6080604052348015600f57600080fd5b50629896806000819055506084806100286000396000f3fe6080604052348015600f57600080fd5b506004361060285760003560e01c806318160ddd14602d575b600080fd5b60336049565b6040518082815260200191505060405180910390f35b6000548156fea265627a7a72315820b81851976078ec75219a41c61c6ff8d407227b2a68543faec95c057c71f668cc64736f6c63430005100032",
  "source": "// SPDX-License-Identifier: MIT\r\npragma solidity >=0.4.22 <0.9.0;\r\n\r\ncontract RogToken {\r\n    //constructor\r\n    //set the total number of tokens\r\n    //read the total number of tokens\r\n\r\n    uint256 public totalSupply;\r\n\r\n    constructor() public {\r\n        totalSupply = 10000000; //1 crore tokens initialized\r\n\r\n    }\r\n}",
  "sourcePath": "D:\\Learning Station\\solidity\\solidity\\second_contract\\contracts\\rog_token.sol",
  "compiler": {
    "name": "solc",
    "version": "0.5.16+commit.9c3226ce.Emscripten.clang"
  },
  "schemaVersion": "3.4.3",
  "updatedAt": "2021-09-28T16:28:46.673Z",
  "devdoc": {
    "methods": {}
  },
  "userdoc": {
    "methods": {}
  }
}